{
  "contractName": "ItemManager",
  "abi": [
    {
      "anonymous": false,
      "inputs": [
        {
          "indexed": false,
          "internalType": "uint256",
          "name": "_itemIndex",
          "type": "uint256"
        },
        {
          "indexed": false,
          "internalType": "uint256",
          "name": "_step",
          "type": "uint256"
        },
        {
          "indexed": false,
          "internalType": "address",
          "name": "_address",
          "type": "address"
        }
      ],
      "name": "SupplyChainStep",
      "type": "event"
    },
    {
      "inputs": [],
      "name": "_owner",
      "outputs": [
        {
          "internalType": "address",
          "name": "",
          "type": "address"
        }
      ],
      "stateMutability": "view",
      "type": "function",
      "constant": true
    },
    {
      "inputs": [],
      "name": "isOwner",
      "outputs": [
        {
          "internalType": "bool",
          "name": "",
          "type": "bool"
        }
      ],
      "stateMutability": "view",
      "type": "function",
      "constant": true
    },
    {
      "inputs": [
        {
          "internalType": "uint256",
          "name": "",
          "type": "uint256"
        }
      ],
      "name": "items",
      "outputs": [
        {
          "internalType": "contract Item",
          "name": "_item",
          "type": "address"
        },
        {
          "internalType": "string",
          "name": "_identifier",
          "type": "string"
        },
        {
          "internalType": "uint256",
          "name": "_itemPrice",
          "type": "uint256"
        },
        {
          "internalType": "enum ItemManager.SupplyChainState",
          "name": "_state",
          "type": "uint8"
        }
      ],
      "stateMutability": "view",
      "type": "function",
      "constant": true
    },
    {
      "inputs": [
        {
          "internalType": "string",
          "name": "_identifier",
          "type": "string"
        },
        {
          "internalType": "uint256",
          "name": "_itemPrice",
          "type": "uint256"
        }
      ],
      "name": "createItem",
      "outputs": [],
      "stateMutability": "nonpayable",
      "type": "function"
    },
    {
      "inputs": [
        {
          "internalType": "uint256",
          "name": "_itemIndex",
          "type": "uint256"
        }
      ],
      "name": "triggerPayment",
      "outputs": [],
      "stateMutability": "payable",
      "type": "function",
      "payable": true
    },
    {
      "inputs": [
        {
          "internalType": "uint256",
          "name": "_itemIndex",
          "type": "uint256"
        }
      ],
      "name": "triggerDelivery",
      "outputs": [],
      "stateMutability": "nonpayable",
      "type": "function"
    }
  ],
  "bytecode": "0x608060405234801561001057600080fd5b50336000806101000a81548173ffffffffffffffffffffffffffffffffffffffff021916908373ffffffffffffffffffffffffffffffffffffffff160217905550611aa7806100606000396000f3fe6080604052600436106200005c5760003560e01c8063800fb83f14620000615780638c55174214620000815780638f32d59b14620000af578063b2bdfa7b14620000df578063bfb231d2146200010f578063cd31831e1462000156575b600080fd5b6200007f6004803603810190620000799190620008fd565b62000184565b005b3480156200008e57600080fd5b50620000ad6004803603810190620000a7919062000a91565b62000362565b005b348015620000bc57600080fd5b50620000c762000569565b604051620000d6919062000b14565b60405180910390f35b348015620000ec57600080fd5b50620000f7620005c0565b60405162000106919062000b76565b60405180910390f35b3480156200011c57600080fd5b506200013b6004803603810190620001359190620008fd565b620005e4565b6040516200014d949392919062000d18565b60405180910390f35b3480156200016357600080fd5b506200018260048036038101906200017c9190620008fd565b620006d1565b005b3460016000838152602001908152602001600020600201541115620001e0576040517f08c379a0000000000000000000000000000000000000000000000000000000008152600401620001d79062000dbc565b60405180910390fd5b60006002811115620001f757620001f662000c98565b5b6001600083815260200190815260200160002060030160009054906101000a900460ff16600281111562000230576200022f62000c98565b5b1462000273576040517f08c379a00000000000000000000000000000000000000000000000000000000081526004016200026a9062000e54565b60405180910390fd5b600180600083815260200190815260200160002060030160006101000a81548160ff02191690836002811115620002af57620002ae62000c98565b5b02179055507fa4035636e99f06b7651a604c1019fa4e8779fe68ef27eeb74dff2de348f6199b816001600084815260200190815260200160002060030160009054906101000a900460ff1660028111156200030f576200030e62000c98565b5b6001600085815260200190815260200160002060000160009054906101000a900473ffffffffffffffffffffffffffffffffffffffff16604051620003579392919062000e76565b60405180910390a150565b6200036c62000569565b620003ae576040517f08c379a0000000000000000000000000000000000000000000000000000000008152600401620003a59062000f03565b60405180910390fd5b60003082600254604051620003c390620008a0565b620003d19392919062000f5e565b604051809103906000f080158015620003ee573d6000803e3d6000fd5b5090508060016000600254815260200190815260200160002060000160006101000a81548173ffffffffffffffffffffffffffffffffffffffff021916908373ffffffffffffffffffffffffffffffffffffffff1602179055508260016000600254815260200190815260200160002060010190816200046f9190620011c7565b508160016000600254815260200190815260200160002060020181905550600060016000600254815260200190815260200160002060030160006101000a81548160ff02191690836002811115620004cc57620004cb62000c98565b5b02179055507fa4035636e99f06b7651a604c1019fa4e8779fe68ef27eeb74dff2de348f6199b60025460016000600254815260200190815260200160002060030160009054906101000a900460ff16600281111562000530576200052f62000c98565b5b83604051620005429392919062000e76565b60405180910390a1600260008154809291906200055f90620012dd565b9190505550505050565b60008060009054906101000a900473ffffffffffffffffffffffffffffffffffffffff1673ffffffffffffffffffffffffffffffffffffffff163373ffffffffffffffffffffffffffffffffffffffff1614905090565b60008054906101000a900473ffffffffffffffffffffffffffffffffffffffff1681565b60016020528060005260406000206000915090508060000160009054906101000a900473ffffffffffffffffffffffffffffffffffffffff16908060010180546200062f9062000fca565b80601f01602080910402602001604051908101604052809291908181526020018280546200065d9062000fca565b8015620006ae5780601f106200068257610100808354040283529160200191620006ae565b820191906000526020600020905b8154815290600101906020018083116200069057829003601f168201915b5050505050908060020154908060030160009054906101000a900460ff16905084565b620006db62000569565b6200071d576040517f08c379a0000000000000000000000000000000000000000000000000000000008152600401620007149062000f03565b60405180910390fd5b6001600281111562000734576200073362000c98565b5b6001600083815260200190815260200160002060030160009054906101000a900460ff1660028111156200076d576200076c62000c98565b5b14620007b0576040517f08c379a0000000000000000000000000000000000000000000000000000000008152600401620007a79062000e54565b60405180910390fd5b60026001600083815260200190815260200160002060030160006101000a81548160ff02191690836002811115620007ed57620007ec62000c98565b5b02179055507fa4035636e99f06b7651a604c1019fa4e8779fe68ef27eeb74dff2de348f6199b816001600084815260200190815260200160002060030160009054906101000a900460ff1660028111156200084d576200084c62000c98565b5b6001600085815260200190815260200160002060000160009054906101000a900473ffffffffffffffffffffffffffffffffffffffff16604051620008959392919062000e76565b60405180910390a150565b610747806200132b83390190565b6000604051905090565b600080fd5b600080fd5b6000819050919050565b620008d781620008c2565b8114620008e357600080fd5b50565b600081359050620008f781620008cc565b92915050565b600060208284031215620009165762000915620008b8565b5b60006200092684828501620008e6565b91505092915050565b600080fd5b600080fd5b6000601f19601f8301169050919050565b7f4e487b7100000000000000000000000000000000000000000000000000000000600052604160045260246000fd5b620009848262000939565b810181811067ffffffffffffffff82111715620009a657620009a56200094a565b5b80604052505050565b6000620009bb620008ae565b9050620009c9828262000979565b919050565b600067ffffffffffffffff821115620009ec57620009eb6200094a565b5b620009f78262000939565b9050602081019050919050565b82818337600083830152505050565b600062000a2a62000a2484620009ce565b620009af565b90508281526020810184848401111562000a495762000a4862000934565b5b62000a5684828562000a04565b509392505050565b600082601f83011262000a765762000a756200092f565b5b813562000a8884826020860162000a13565b91505092915050565b6000806040838503121562000aab5762000aaa620008b8565b5b600083013567ffffffffffffffff81111562000acc5762000acb620008bd565b5b62000ada8582860162000a5e565b925050602062000aed85828601620008e6565b9150509250929050565b60008115159050919050565b62000b0e8162000af7565b82525050565b600060208201905062000b2b600083018462000b03565b92915050565b600073ffffffffffffffffffffffffffffffffffffffff82169050919050565b600062000b5e8262000b31565b9050919050565b62000b708162000b51565b82525050565b600060208201905062000b8d600083018462000b65565b92915050565b6000819050919050565b600062000bbe62000bb862000bb28462000b31565b62000b93565b62000b31565b9050919050565b600062000bd28262000b9d565b9050919050565b600062000be68262000bc5565b9050919050565b62000bf88162000bd9565b82525050565b600081519050919050565b600082825260208201905092915050565b60005b8381101562000c3a57808201518184015260208101905062000c1d565b60008484015250505050565b600062000c538262000bfe565b62000c5f818562000c09565b935062000c7181856020860162000c1a565b62000c7c8162000939565b840191505092915050565b62000c9281620008c2565b82525050565b7f4e487b7100000000000000000000000000000000000000000000000000000000600052602160045260246000fd5b6003811062000cdb5762000cda62000c98565b5b50565b600081905062000cee8262000cc7565b919050565b600062000d008262000cde565b9050919050565b62000d128162000cf3565b82525050565b600060808201905062000d2f600083018762000bed565b818103602083015262000d43818662000c46565b905062000d54604083018562000c87565b62000d63606083018462000d07565b95945050505050565b7f4e6f742066756c6c792070616964000000000000000000000000000000000000600082015250565b600062000da4600e8362000c09565b915062000db18262000d6c565b602082019050919050565b6000602082019050818103600083015262000dd78162000d95565b9050919050565b7f4974656d206973206675727468657220696e2074686520737570706c7920636860008201527f61696e0000000000000000000000000000000000000000000000000000000000602082015250565b600062000e3c60238362000c09565b915062000e498262000dde565b604082019050919050565b6000602082019050818103600083015262000e6f8162000e2d565b9050919050565b600060608201905062000e8d600083018662000c87565b62000e9c602083018562000c87565b62000eab604083018462000b65565b949350505050565b7f596f7520776173206e6f74206f776e6572000000000000000000000000000000600082015250565b600062000eeb60118362000c09565b915062000ef88262000eb3565b602082019050919050565b6000602082019050818103600083015262000f1e8162000edc565b9050919050565b600062000f328262000b9d565b9050919050565b600062000f468262000f25565b9050919050565b62000f588162000f39565b82525050565b600060608201905062000f75600083018662000f4d565b62000f84602083018562000c87565b62000f93604083018462000c87565b949350505050565b7f4e487b7100000000000000000000000000000000000000000000000000000000600052602260045260246000fd5b6000600282049050600182168062000fe357607f821691505b60208210810362000ff95762000ff862000f9b565b5b50919050565b60008190508160005260206000209050919050565b60006020601f8301049050919050565b600082821b905092915050565b600060088302620010637fffffffffffffffffffffffffffffffffffffffffffffffffffffffffffffffff8262001024565b6200106f868362001024565b95508019841693508086168417925050509392505050565b6000620010a8620010a26200109c84620008c2565b62000b93565b620008c2565b9050919050565b6000819050919050565b620010c48362001087565b620010dc620010d382620010af565b84845462001031565b825550505050565b600090565b620010f3620010e4565b62001100818484620010b9565b505050565b5b8181101562001128576200111c600082620010e9565b60018101905062001106565b5050565b601f8211156200117757620011418162000fff565b6200114c8462001014565b810160208510156200115c578190505b620011746200116b8562001014565b83018262001105565b50505b505050565b600082821c905092915050565b60006200119c600019846008026200117c565b1980831691505092915050565b6000620011b7838362001189565b9150826002028217905092915050565b620011d28262000bfe565b67ffffffffffffffff811115620011ee57620011ed6200094a565b5b620011fa825462000fca565b620012078282856200112c565b600060209050601f8311600181146200123f57600084156200122a578287015190505b620012368582620011a9565b865550620012a6565b601f1984166200124f8662000fff565b60005b82811015620012795784890151825560018201915060208501945060208101905062001252565b8683101562001299578489015162001295601f89168262001189565b8355505b6001600288020188555050505b505050505050565b7f4e487b7100000000000000000000000000000000000000000000000000000000600052601160045260246000fd5b6000620012ea82620008c2565b91507fffffffffffffffffffffffffffffffffffffffffffffffffffffffffffffffff82036200131f576200131e620012ae565b5b60018201905091905056fe608060405234801561001057600080fd5b5060405161074738038061074783398181016040528101906100329190610134565b816000819055508060028190555082600360006101000a81548173ffffffffffffffffffffffffffffffffffffffff021916908373ffffffffffffffffffffffffffffffffffffffff160217905550505050610187565b600080fd5b600073ffffffffffffffffffffffffffffffffffffffff82169050919050565b60006100b98261008e565b9050919050565b60006100cb826100ae565b9050919050565b6100db816100c0565b81146100e657600080fd5b50565b6000815190506100f8816100d2565b92915050565b6000819050919050565b610111816100fe565b811461011c57600080fd5b50565b60008151905061012e81610108565b92915050565b60008060006060848603121561014d5761014c610089565b5b600061015b868287016100e9565b935050602061016c8682870161011f565b925050604061017d8682870161011f565b9150509250925092565b6105b1806101966000396000f3fe6080604052600436106100385760003560e01c80632986c0e51461024e5780633c8da5881461027957806389794d00146102a457610240565b3661024057600060015414610082576040517f08c379a00000000000000000000000000000000000000000000000000000000081526004016100799061033e565b60405180910390fd5b34600054146100c6576040517f08c379a00000000000000000000000000000000000000000000000000000000081526004016100bd906103d0565b60405180910390fd5b34600160008282546100d89190610429565b925050819055506000600360009054906101000a900473ffffffffffffffffffffffffffffffffffffffff1673ffffffffffffffffffffffffffffffffffffffff163460025460405160240161012e919061046c565b6040516020818303038152906040527f800fb83f000000000000000000000000000000000000000000000000000000007bffffffffffffffffffffffffffffffffffffffffffffffffffffffff19166020820180517bffffffffffffffffffffffffffffffffffffffffffffffffffffffff83818316178352505050506040516101b891906104f8565b60006040518083038185875af1925050503d80600081146101f5576040519150601f19603f3d011682016040523d82523d6000602084013e6101fa565b606091505b505090508061023e576040517f08c379a00000000000000000000000000000000000000000000000000000000081526004016102359061055b565b60405180910390fd5b005b34801561024c57600080fd5b005b34801561025a57600080fd5b506102636102cf565b604051610270919061046c565b60405180910390f35b34801561028557600080fd5b5061028e6102d5565b60405161029b919061046c565b60405180910390f35b3480156102b057600080fd5b506102b96102db565b6040516102c6919061046c565b60405180910390f35b60025481565b60005481565b60015481565b600082825260208201905092915050565b7f4974656d20697320616c72656164792070616964210000000000000000000000600082015250565b60006103286015836102e1565b9150610333826102f2565b602082019050919050565b600060208201905081810360008301526103578161031b565b9050919050565b7f576520646f6e277420737570706f7274207061727469616c207061796d656e7460008201527f7300000000000000000000000000000000000000000000000000000000000000602082015250565b60006103ba6021836102e1565b91506103c58261035e565b604082019050919050565b600060208201905081810360008301526103e9816103ad565b9050919050565b6000819050919050565b7f4e487b7100000000000000000000000000000000000000000000000000000000600052601160045260246000fd5b6000610434826103f0565b915061043f836103f0565b9250828201905080821115610457576104566103fa565b5b92915050565b610466816103f0565b82525050565b6000602082019050610481600083018461045d565b92915050565b600081519050919050565b600081905092915050565b60005b838110156104bb5780820151818401526020810190506104a0565b60008484015250505050565b60006104d282610487565b6104dc8185610492565b93506104ec81856020860161049d565b80840191505092915050565b600061050482846104c7565b915081905092915050565b7f5472616e73616374696f6e20776173206e6f7420737563636573730000000000600082015250565b6000610545601b836102e1565b91506105508261050f565b602082019050919050565b6000602082019050818103600083015261057481610538565b905091905056fea2646970667358221220ef29bd55d6f304dc9d27aedf5758df4add3a1adcdd5f652b049aa6681c883a1f64736f6c63430008120033a2646970667358221220c0b157aade601e052e2ca1488594fe8263afab64d0bbecc2d5c7afbfdae7355b64736f6c63430008120033",
  "immutableReferences": {},
  "source": "pragma solidity >=0.4.22 <0.9.0;\r\n\r\nimport \"./Ownable.sol\";\r\nimport \"./Item.sol\";\r\n\r\ncontract ItemManager is Ownable{\r\n\r\n    enum SupplyChainState{Created, Paid, Delivered}\r\n\r\n    struct S_Item {\r\n        Item _item;\r\n        string _identifier;\r\n        uint _itemPrice;\r\n        ItemManager.SupplyChainState _state;\r\n    }\r\n    mapping(uint => S_Item) public items;\r\n    uint itemIndex;\r\n\r\n    event SupplyChainStep(uint _itemIndex, uint _step, address _address);\r\n\r\n    function createItem(string memory _identifier, uint _itemPrice) public onlyOwner  {\r\n        Item item = new Item(this, _itemPrice, itemIndex);\r\n        items[itemIndex]._item = item;\r\n        items[itemIndex]._identifier = _identifier;\r\n        items[itemIndex]._itemPrice = _itemPrice;\r\n        items[itemIndex]._state = SupplyChainState.Created;\r\n        emit SupplyChainStep(itemIndex, uint(items[itemIndex]._state), address(item));\r\n        itemIndex++;\r\n    }\r\n\r\n    function triggerPayment(uint _itemIndex) public payable {\r\n        require(items[_itemIndex]._itemPrice <= msg.value, \"Not fully paid\");\r\n        require(items[_itemIndex]._state == SupplyChainState.Created, \"Item is further in the supply chain\");\r\n        items[_itemIndex]._state = SupplyChainState.Paid;\r\n        emit SupplyChainStep(_itemIndex, uint(items[_itemIndex]._state), address(items[_itemIndex]._item));\r\n    }\r\n\r\n    function triggerDelivery(uint _itemIndex) public onlyOwner {\r\n        require(items[_itemIndex]._state == SupplyChainState.Paid, \"Item is further in the supply chain\");\r\n        items[_itemIndex]._state = SupplyChainState.Delivered;\r\n        emit SupplyChainStep(_itemIndex, uint(items[_itemIndex]._state), address(items[_itemIndex]._item));\r\n    }\r\n}",
  "sourcePath": "C:\\Users\\Admin\\Block_Chain\\Supply_Chain\\truffle\\contracts\\ItemManager.sol",
  "compiler": {
    "name": "solc",
    "version": "0.8.18+commit.87f61d96.Emscripten.clang"
  },
  "schemaVersion": "3.4.13",
  "updatedAt": "2023-05-17T05:59:43.129Z",
  "networkType": "ethereum",
  "devdoc": {
    "kind": "dev",
    "methods": {
      "isOwner()": {
        "details": "Returns true if the caller is the current owner."
      }
    },
    "version": 1
  },
  "userdoc": {
    "kind": "user",
    "methods": {},
    "version": 1
  }
}